{
  "_format": "hh-sol-artifact-1",
  "contractName": "TalentNFT",
  "sourceName": "contracts/TalentNFT.sol",
  "abi": [
    {
      "inputs": [
        {
          "internalType": "address",
          "name": "initialOwner",
          "type": "address"
        }
      ],
      "stateMutability": "nonpayable",
      "type": "constructor"
    },
    {
      "inputs": [
        {
          "internalType": "address",
          "name": "sender",
          "type": "address"
        },
        {
          "internalType": "uint256",
          "name": "tokenId",
          "type": "uint256"
        },
        {
          "internalType": "address",
          "name": "owner",
          "type": "address"
        }
      ],
      "name": "ERC721IncorrectOwner",
      "type": "error"
    },
    {
      "inputs": [
        {
          "internalType": "address",
          "name": "operator",
          "type": "address"
        },
        {
          "internalType": "uint256",
          "name": "tokenId",
          "type": "uint256"
        }
      ],
      "name": "ERC721InsufficientApproval",
      "type": "error"
    },
    {
      "inputs": [
        {
          "internalType": "address",
          "name": "approver",
          "type": "address"
        }
      ],
      "name": "ERC721InvalidApprover",
      "type": "error"
    },
    {
      "inputs": [
        {
          "internalType": "address",
          "name": "operator",
          "type": "address"
        }
      ],
      "name": "ERC721InvalidOperator",
      "type": "error"
    },
    {
      "inputs": [
        {
          "internalType": "address",
          "name": "owner",
          "type": "address"
        }
      ],
      "name": "ERC721InvalidOwner",
      "type": "error"
    },
    {
      "inputs": [
        {
          "internalType": "address",
          "name": "receiver",
          "type": "address"
        }
      ],
      "name": "ERC721InvalidReceiver",
      "type": "error"
    },
    {
      "inputs": [
        {
          "internalType": "address",
          "name": "sender",
          "type": "address"
        }
      ],
      "name": "ERC721InvalidSender",
      "type": "error"
    },
    {
      "inputs": [
        {
          "internalType": "uint256",
          "name": "tokenId",
          "type": "uint256"
        }
      ],
      "name": "ERC721NonexistentToken",
      "type": "error"
    },
    {
      "inputs": [
        {
          "internalType": "address",
          "name": "owner",
          "type": "address"
        }
      ],
      "name": "OwnableInvalidOwner",
      "type": "error"
    },
    {
      "inputs": [
        {
          "internalType": "address",
          "name": "account",
          "type": "address"
        }
      ],
      "name": "OwnableUnauthorizedAccount",
      "type": "error"
    },
    {
      "anonymous": false,
      "inputs": [
        {
          "indexed": true,
          "internalType": "address",
          "name": "owner",
          "type": "address"
        },
        {
          "indexed": true,
          "internalType": "address",
          "name": "approved",
          "type": "address"
        },
        {
          "indexed": true,
          "internalType": "uint256",
          "name": "tokenId",
          "type": "uint256"
        }
      ],
      "name": "Approval",
      "type": "event"
    },
    {
      "anonymous": false,
      "inputs": [
        {
          "indexed": true,
          "internalType": "address",
          "name": "owner",
          "type": "address"
        },
        {
          "indexed": true,
          "internalType": "address",
          "name": "operator",
          "type": "address"
        },
        {
          "indexed": false,
          "internalType": "bool",
          "name": "approved",
          "type": "bool"
        }
      ],
      "name": "ApprovalForAll",
      "type": "event"
    },
    {
      "anonymous": false,
      "inputs": [
        {
          "indexed": false,
          "internalType": "uint256",
          "name": "_fromTokenId",
          "type": "uint256"
        },
        {
          "indexed": false,
          "internalType": "uint256",
          "name": "_toTokenId",
          "type": "uint256"
        }
      ],
      "name": "BatchMetadataUpdate",
      "type": "event"
    },
    {
      "anonymous": false,
      "inputs": [
        {
          "indexed": false,
          "internalType": "uint256",
          "name": "_tokenId",
          "type": "uint256"
        }
      ],
      "name": "MetadataUpdate",
      "type": "event"
    },
    {
      "anonymous": false,
      "inputs": [
        {
          "indexed": true,
          "internalType": "address",
          "name": "previousOwner",
          "type": "address"
        },
        {
          "indexed": true,
          "internalType": "address",
          "name": "newOwner",
          "type": "address"
        }
      ],
      "name": "OwnershipTransferred",
      "type": "event"
    },
    {
      "anonymous": false,
      "inputs": [
        {
          "indexed": true,
          "internalType": "address",
          "name": "from",
          "type": "address"
        },
        {
          "indexed": true,
          "internalType": "address",
          "name": "to",
          "type": "address"
        },
        {
          "indexed": true,
          "internalType": "uint256",
          "name": "tokenId",
          "type": "uint256"
        }
      ],
      "name": "Transfer",
      "type": "event"
    },
    {
      "inputs": [
        {
          "internalType": "address",
          "name": "to",
          "type": "address"
        },
        {
          "internalType": "uint256",
          "name": "tokenId",
          "type": "uint256"
        }
      ],
      "name": "approve",
      "outputs": [],
      "stateMutability": "nonpayable",
      "type": "function"
    },
    {
      "inputs": [
        {
          "internalType": "address",
          "name": "owner",
          "type": "address"
        }
      ],
      "name": "balanceOf",
      "outputs": [
        {
          "internalType": "uint256",
          "name": "",
          "type": "uint256"
        }
      ],
      "stateMutability": "view",
      "type": "function"
    },
    {
      "inputs": [
        {
          "internalType": "uint256",
          "name": "tokenId",
          "type": "uint256"
        }
      ],
      "name": "getApproved",
      "outputs": [
        {
          "internalType": "address",
          "name": "",
          "type": "address"
        }
      ],
      "stateMutability": "view",
      "type": "function"
    },
    {
      "inputs": [
        {
          "internalType": "address",
          "name": "owner",
          "type": "address"
        },
        {
          "internalType": "address",
          "name": "operator",
          "type": "address"
        }
      ],
      "name": "isApprovedForAll",
      "outputs": [
        {
          "internalType": "bool",
          "name": "",
          "type": "bool"
        }
      ],
      "stateMutability": "view",
      "type": "function"
    },
    {
      "inputs": [
        {
          "internalType": "address",
          "name": "recipient",
          "type": "address"
        },
        {
          "internalType": "string",
          "name": "tokenURI",
          "type": "string"
        }
      ],
      "name": "mintTalentNFT",
      "outputs": [
        {
          "internalType": "uint256",
          "name": "",
          "type": "uint256"
        }
      ],
      "stateMutability": "nonpayable",
      "type": "function"
    },
    {
      "inputs": [],
      "name": "name",
      "outputs": [
        {
          "internalType": "string",
          "name": "",
          "type": "string"
        }
      ],
      "stateMutability": "view",
      "type": "function"
    },
    {
      "inputs": [],
      "name": "owner",
      "outputs": [
        {
          "internalType": "address",
          "name": "",
          "type": "address"
        }
      ],
      "stateMutability": "view",
      "type": "function"
    },
    {
      "inputs": [
        {
          "internalType": "uint256",
          "name": "tokenId",
          "type": "uint256"
        }
      ],
      "name": "ownerOf",
      "outputs": [
        {
          "internalType": "address",
          "name": "",
          "type": "address"
        }
      ],
      "stateMutability": "view",
      "type": "function"
    },
    {
      "inputs": [],
      "name": "renounceOwnership",
      "outputs": [],
      "stateMutability": "nonpayable",
      "type": "function"
    },
    {
      "inputs": [
        {
          "internalType": "address",
          "name": "from",
          "type": "address"
        },
        {
          "internalType": "address",
          "name": "to",
          "type": "address"
        },
        {
          "internalType": "uint256",
          "name": "tokenId",
          "type": "uint256"
        }
      ],
      "name": "safeTransferFrom",
      "outputs": [],
      "stateMutability": "nonpayable",
      "type": "function"
    },
    {
      "inputs": [
        {
          "internalType": "address",
          "name": "from",
          "type": "address"
        },
        {
          "internalType": "address",
          "name": "to",
          "type": "address"
        },
        {
          "internalType": "uint256",
          "name": "tokenId",
          "type": "uint256"
        },
        {
          "internalType": "bytes",
          "name": "data",
          "type": "bytes"
        }
      ],
      "name": "safeTransferFrom",
      "outputs": [],
      "stateMutability": "nonpayable",
      "type": "function"
    },
    {
      "inputs": [
        {
          "internalType": "address",
          "name": "operator",
          "type": "address"
        },
        {
          "internalType": "bool",
          "name": "approved",
          "type": "bool"
        }
      ],
      "name": "setApprovalForAll",
      "outputs": [],
      "stateMutability": "nonpayable",
      "type": "function"
    },
    {
      "inputs": [
        {
          "internalType": "bytes4",
          "name": "interfaceId",
          "type": "bytes4"
        }
      ],
      "name": "supportsInterface",
      "outputs": [
        {
          "internalType": "bool",
          "name": "",
          "type": "bool"
        }
      ],
      "stateMutability": "view",
      "type": "function"
    },
    {
      "inputs": [],
      "name": "symbol",
      "outputs": [
        {
          "internalType": "string",
          "name": "",
          "type": "string"
        }
      ],
      "stateMutability": "view",
      "type": "function"
    },
    {
      "inputs": [],
      "name": "tokenCounter",
      "outputs": [
        {
          "internalType": "uint256",
          "name": "",
          "type": "uint256"
        }
      ],
      "stateMutability": "view",
      "type": "function"
    },
    {
      "inputs": [
        {
          "internalType": "uint256",
          "name": "tokenId",
          "type": "uint256"
        }
      ],
      "name": "tokenURI",
      "outputs": [
        {
          "internalType": "string",
          "name": "",
          "type": "string"
        }
      ],
      "stateMutability": "view",
      "type": "function"
    },
    {
      "inputs": [
        {
          "internalType": "address",
          "name": "from",
          "type": "address"
        },
        {
          "internalType": "address",
          "name": "to",
          "type": "address"
        },
        {
          "internalType": "uint256",
          "name": "tokenId",
          "type": "uint256"
        }
      ],
      "name": "transferFrom",
      "outputs": [],
      "stateMutability": "nonpayable",
      "type": "function"
    },
    {
      "inputs": [
        {
          "internalType": "address",
          "name": "newOwner",
          "type": "address"
        }
      ],
      "name": "transferOwnership",
      "outputs": [],
      "stateMutability": "nonpayable",
      "type": "function"
    }
  ],
  "bytecode": "0x60806040523480156200001157600080fd5b5060405162002cc838038062002cc8833981810160405281019062000037919062000290565b806040518060400160405280600e81526020017f54616c616e54616c656e744e46540000000000000000000000000000000000008152506040518060400160405280600581526020017f54544e46540000000000000000000000000000000000000000000000000000008152508160009081620000b591906200053c565b508060019081620000c791906200053c565b505050600073ffffffffffffffffffffffffffffffffffffffff168173ffffffffffffffffffffffffffffffffffffffff16036200013f5760006040517f1e4fbdf700000000000000000000000000000000000000000000000000000000815260040162000136919062000634565b60405180910390fd5b62000150816200016060201b60201c565b5060006008819055505062000651565b6000600760009054906101000a900473ffffffffffffffffffffffffffffffffffffffff16905081600760006101000a81548173ffffffffffffffffffffffffffffffffffffffff021916908373ffffffffffffffffffffffffffffffffffffffff1602179055508173ffffffffffffffffffffffffffffffffffffffff168173ffffffffffffffffffffffffffffffffffffffff167f8be0079c531659141344cd1fd0a4f28419497f9722a3daafe3b4186f6b6457e060405160405180910390a35050565b600080fd5b600073ffffffffffffffffffffffffffffffffffffffff82169050919050565b600062000258826200022b565b9050919050565b6200026a816200024b565b81146200027657600080fd5b50565b6000815190506200028a816200025f565b92915050565b600060208284031215620002a957620002a862000226565b5b6000620002b98482850162000279565b91505092915050565b600081519050919050565b7f4e487b7100000000000000000000000000000000000000000000000000000000600052604160045260246000fd5b7f4e487b7100000000000000000000000000000000000000000000000000000000600052602260045260246000fd5b600060028204905060018216806200034457607f821691505b6020821081036200035a5762000359620002fc565b5b50919050565b60008190508160005260206000209050919050565b60006020601f8301049050919050565b600082821b905092915050565b600060088302620003c47fffffffffffffffffffffffffffffffffffffffffffffffffffffffffffffffff8262000385565b620003d0868362000385565b95508019841693508086168417925050509392505050565b6000819050919050565b6000819050919050565b60006200041d620004176200041184620003e8565b620003f2565b620003e8565b9050919050565b6000819050919050565b6200043983620003fc565b62000451620004488262000424565b84845462000392565b825550505050565b600090565b6200046862000459565b620004758184846200042e565b505050565b5b818110156200049d57620004916000826200045e565b6001810190506200047b565b5050565b601f821115620004ec57620004b68162000360565b620004c18462000375565b81016020851015620004d1578190505b620004e9620004e08562000375565b8301826200047a565b50505b505050565b600082821c905092915050565b60006200051160001984600802620004f1565b1980831691505092915050565b60006200052c8383620004fe565b9150826002028217905092915050565b6200054782620002c2565b67ffffffffffffffff811115620005635762000562620002cd565b5b6200056f82546200032b565b6200057c828285620004a1565b600060209050601f831160018114620005b457600084156200059f578287015190505b620005ab85826200051e565b8655506200061b565b601f198416620005c48662000360565b60005b82811015620005ee57848901518255600182019150602085019450602081019050620005c7565b868310156200060e57848901516200060a601f891682620004fe565b8355505b6001600288020188555050505b505050505050565b6200062e816200024b565b82525050565b60006020820190506200064b600083018462000623565b92915050565b61266780620006616000396000f3fe608060405234801561001057600080fd5b50600436106101165760003560e01c8063715018a6116100a2578063b88d4fde11610071578063b88d4fde146102df578063c87b56dd146102fb578063d082e3811461032b578063e985e9c514610349578063f2fde38b1461037957610116565b8063715018a61461027d5780638da5cb5b1461028757806395d89b41146102a5578063a22cb465146102c357610116565b806323b872dd116100e957806323b872dd146101b557806331eb706c146101d157806342842e0e146102015780636352211e1461021d57806370a082311461024d57610116565b806301ffc9a71461011b57806306fdde031461014b578063081812fc14610169578063095ea7b314610199575b600080fd5b61013560048036038101906101309190611abf565b610395565b6040516101429190611b07565b60405180910390f35b6101536103f6565b6040516101609190611bb2565b60405180910390f35b610183600480360381019061017e9190611c0a565b610488565b6040516101909190611c78565b60405180910390f35b6101b360048036038101906101ae9190611cbf565b6104a4565b005b6101cf60048036038101906101ca9190611cff565b6104ba565b005b6101eb60048036038101906101e69190611e87565b6105bc565b6040516101f89190611ef2565b60405180910390f35b61021b60048036038101906102169190611cff565b6105fa565b005b61023760048036038101906102329190611c0a565b61061a565b6040516102449190611c78565b60405180910390f35b61026760048036038101906102629190611f0d565b61062c565b6040516102749190611ef2565b60405180910390f35b6102856106e6565b005b61028f6106fa565b60405161029c9190611c78565b60405180910390f35b6102ad610724565b6040516102ba9190611bb2565b60405180910390f35b6102dd60048036038101906102d89190611f66565b6107b6565b005b6102f960048036038101906102f49190612047565b6107cc565b005b61031560048036038101906103109190611c0a565b6107f1565b6040516103229190611bb2565b60405180910390f35b610333610904565b6040516103409190611ef2565b60405180910390f35b610363600480360381019061035e91906120ca565b61090a565b6040516103709190611b07565b60405180910390f35b610393600480360381019061038e9190611f0d565b61099e565b005b6000634906490660e01b7bffffffffffffffffffffffffffffffffffffffffffffffffffffffff1916827bffffffffffffffffffffffffffffffffffffffffffffffffffffffff191614806103ef57506103ee82610a24565b5b9050919050565b60606000805461040590612139565b80601f016020809104026020016040519081016040528092919081815260200182805461043190612139565b801561047e5780601f106104535761010080835404028352916020019161047e565b820191906000526020600020905b81548152906001019060200180831161046157829003601f168201915b5050505050905090565b600061049382610b06565b5061049d82610b8e565b9050919050565b6104b682826104b1610bcb565b610bd3565b5050565b600073ffffffffffffffffffffffffffffffffffffffff168273ffffffffffffffffffffffffffffffffffffffff160361052c5760006040517f64a0ae920000000000000000000000000000000000000000000000000000000081526004016105239190611c78565b60405180910390fd5b6000610540838361053b610bcb565b610be5565b90508373ffffffffffffffffffffffffffffffffffffffff168173ffffffffffffffffffffffffffffffffffffffff16146105b6578382826040517f64283d7b0000000000000000000000000000000000000000000000000000000081526004016105ad9392919061216a565b60405180910390fd5b50505050565b60008060085490506105ce8482610dff565b6105d88184610ef8565b600860008154809291906105eb906121d0565b91905055508091505092915050565b610615838383604051806020016040528060008152506107cc565b505050565b600061062582610b06565b9050919050565b60008073ffffffffffffffffffffffffffffffffffffffff168273ffffffffffffffffffffffffffffffffffffffff160361069f5760006040517f89c62b640000000000000000000000000000000000000000000000000000000081526004016106969190611c78565b60405180910390fd5b600360008373ffffffffffffffffffffffffffffffffffffffff1673ffffffffffffffffffffffffffffffffffffffff168152602001908152602001600020549050919050565b6106ee610f54565b6106f86000610fdb565b565b6000600760009054906101000a900473ffffffffffffffffffffffffffffffffffffffff16905090565b60606001805461073390612139565b80601f016020809104026020016040519081016040528092919081815260200182805461075f90612139565b80156107ac5780601f10610781576101008083540402835291602001916107ac565b820191906000526020600020905b81548152906001019060200180831161078f57829003601f168201915b5050505050905090565b6107c86107c1610bcb565b83836110a1565b5050565b6107d78484846104ba565b6107eb6107e2610bcb565b85858585611210565b50505050565b60606107fc82610b06565b50600060066000848152602001908152602001600020805461081d90612139565b80601f016020809104026020016040519081016040528092919081815260200182805461084990612139565b80156108965780601f1061086b57610100808354040283529160200191610896565b820191906000526020600020905b81548152906001019060200180831161087957829003601f168201915b5050505050905060006108a76113c1565b905060008151036108bc5781925050506108ff565b6000825111156108f15780826040516020016108d9929190612254565b604051602081830303815290604052925050506108ff565b6108fa846113d8565b925050505b919050565b60085481565b6000600560008473ffffffffffffffffffffffffffffffffffffffff1673ffffffffffffffffffffffffffffffffffffffff16815260200190815260200160002060008373ffffffffffffffffffffffffffffffffffffffff1673ffffffffffffffffffffffffffffffffffffffff16815260200190815260200160002060009054906101000a900460ff16905092915050565b6109a6610f54565b600073ffffffffffffffffffffffffffffffffffffffff168173ffffffffffffffffffffffffffffffffffffffff1603610a185760006040517f1e4fbdf7000000000000000000000000000000000000000000000000000000008152600401610a0f9190611c78565b60405180910390fd5b610a2181610fdb565b50565b60007f80ac58cd000000000000000000000000000000000000000000000000000000007bffffffffffffffffffffffffffffffffffffffffffffffffffffffff1916827bffffffffffffffffffffffffffffffffffffffffffffffffffffffff19161480610aef57507f5b5e139f000000000000000000000000000000000000000000000000000000007bffffffffffffffffffffffffffffffffffffffffffffffffffffffff1916827bffffffffffffffffffffffffffffffffffffffffffffffffffffffff1916145b80610aff5750610afe82611441565b5b9050919050565b600080610b12836114ab565b9050600073ffffffffffffffffffffffffffffffffffffffff168173ffffffffffffffffffffffffffffffffffffffff1603610b8557826040517f7e273289000000000000000000000000000000000000000000000000000000008152600401610b7c9190611ef2565b60405180910390fd5b80915050919050565b60006004600083815260200190815260200160002060009054906101000a900473ffffffffffffffffffffffffffffffffffffffff169050919050565b600033905090565b610be083838360016114e8565b505050565b600080610bf1846114ab565b9050600073ffffffffffffffffffffffffffffffffffffffff168373ffffffffffffffffffffffffffffffffffffffff1614610c3357610c328184866116ad565b5b600073ffffffffffffffffffffffffffffffffffffffff168173ffffffffffffffffffffffffffffffffffffffff1614610cc457610c756000856000806114e8565b6001600360008373ffffffffffffffffffffffffffffffffffffffff1673ffffffffffffffffffffffffffffffffffffffff168152602001908152602001600020600082825403925050819055505b600073ffffffffffffffffffffffffffffffffffffffff168573ffffffffffffffffffffffffffffffffffffffff1614610d47576001600360008773ffffffffffffffffffffffffffffffffffffffff1673ffffffffffffffffffffffffffffffffffffffff168152602001908152602001600020600082825401925050819055505b846002600086815260200190815260200160002060006101000a81548173ffffffffffffffffffffffffffffffffffffffff021916908373ffffffffffffffffffffffffffffffffffffffff160217905550838573ffffffffffffffffffffffffffffffffffffffff168273ffffffffffffffffffffffffffffffffffffffff167fddf252ad1be2c89b69c2b068fc378daa952ba7f163c4a11628f55a4df523b3ef60405160405180910390a4809150509392505050565b600073ffffffffffffffffffffffffffffffffffffffff168273ffffffffffffffffffffffffffffffffffffffff1603610e715760006040517f64a0ae92000000000000000000000000000000000000000000000000000000008152600401610e689190611c78565b60405180910390fd5b6000610e7f83836000610be5565b9050600073ffffffffffffffffffffffffffffffffffffffff168173ffffffffffffffffffffffffffffffffffffffff1614610ef35760006040517f73c6ac6e000000000000000000000000000000000000000000000000000000008152600401610eea9190611c78565b60405180910390fd5b505050565b80600660008481526020019081526020016000209081610f189190612424565b507ff8e1a15aba9398e019f0b49df1a4fde98ee17ae345cb5f6b5e2c27f5033e8ce782604051610f489190611ef2565b60405180910390a15050565b610f5c610bcb565b73ffffffffffffffffffffffffffffffffffffffff16610f7a6106fa565b73ffffffffffffffffffffffffffffffffffffffff1614610fd957610f9d610bcb565b6040517f118cdaa7000000000000000000000000000000000000000000000000000000008152600401610fd09190611c78565b60405180910390fd5b565b6000600760009054906101000a900473ffffffffffffffffffffffffffffffffffffffff16905081600760006101000a81548173ffffffffffffffffffffffffffffffffffffffff021916908373ffffffffffffffffffffffffffffffffffffffff1602179055508173ffffffffffffffffffffffffffffffffffffffff168173ffffffffffffffffffffffffffffffffffffffff167f8be0079c531659141344cd1fd0a4f28419497f9722a3daafe3b4186f6b6457e060405160405180910390a35050565b600073ffffffffffffffffffffffffffffffffffffffff168273ffffffffffffffffffffffffffffffffffffffff160361111257816040517f5b08ba180000000000000000000000000000000000000000000000000000000081526004016111099190611c78565b60405180910390fd5b80600560008573ffffffffffffffffffffffffffffffffffffffff1673ffffffffffffffffffffffffffffffffffffffff16815260200190815260200160002060008473ffffffffffffffffffffffffffffffffffffffff1673ffffffffffffffffffffffffffffffffffffffff16815260200190815260200160002060006101000a81548160ff0219169083151502179055508173ffffffffffffffffffffffffffffffffffffffff168373ffffffffffffffffffffffffffffffffffffffff167f17307eab39ab6107e8899845ad3d59bd9653f200f220920489ca2b5937696c31836040516112039190611b07565b60405180910390a3505050565b60008373ffffffffffffffffffffffffffffffffffffffff163b11156113ba578273ffffffffffffffffffffffffffffffffffffffff1663150b7a02868685856040518563ffffffff1660e01b815260040161126f949392919061254b565b6020604051808303816000875af19250505080156112ab57506040513d601f19601f820116820180604052508101906112a891906125ac565b60015b61132f573d80600081146112db576040519150601f19603f3d011682016040523d82523d6000602084013e6112e0565b606091505b50600081510361132757836040517f64a0ae9200000000000000000000000000000000000000000000000000000000815260040161131e9190611c78565b60405180910390fd5b805181602001fd5b63150b7a0260e01b7bffffffffffffffffffffffffffffffffffffffffffffffffffffffff1916817bffffffffffffffffffffffffffffffffffffffffffffffffffffffff1916146113b857836040517f64a0ae920000000000000000000000000000000000000000000000000000000081526004016113af9190611c78565b60405180910390fd5b505b5050505050565b606060405180602001604052806000815250905090565b60606113e382610b06565b5060006113ee6113c1565b9050600081511161140e5760405180602001604052806000815250611439565b8061141884611771565b604051602001611429929190612254565b6040516020818303038152906040525b915050919050565b60007f01ffc9a7000000000000000000000000000000000000000000000000000000007bffffffffffffffffffffffffffffffffffffffffffffffffffffffff1916827bffffffffffffffffffffffffffffffffffffffffffffffffffffffff1916149050919050565b60006002600083815260200190815260200160002060009054906101000a900473ffffffffffffffffffffffffffffffffffffffff169050919050565b80806115215750600073ffffffffffffffffffffffffffffffffffffffff168273ffffffffffffffffffffffffffffffffffffffff1614155b1561165557600061153184610b06565b9050600073ffffffffffffffffffffffffffffffffffffffff168373ffffffffffffffffffffffffffffffffffffffff161415801561159c57508273ffffffffffffffffffffffffffffffffffffffff168173ffffffffffffffffffffffffffffffffffffffff1614155b80156115af57506115ad818461090a565b155b156115f157826040517fa9fbf51f0000000000000000000000000000000000000000000000000000000081526004016115e89190611c78565b60405180910390fd5b811561165357838573ffffffffffffffffffffffffffffffffffffffff168273ffffffffffffffffffffffffffffffffffffffff167f8c5be1e5ebec7d5bd14f71427d1e84f3dd0314c0f7b2291e5b200ac8c7c3b92560405160405180910390a45b505b836004600085815260200190815260200160002060006101000a81548173ffffffffffffffffffffffffffffffffffffffff021916908373ffffffffffffffffffffffffffffffffffffffff16021790555050505050565b6116b883838361183f565b61176c57600073ffffffffffffffffffffffffffffffffffffffff168373ffffffffffffffffffffffffffffffffffffffff160361172d57806040517f7e2732890000000000000000000000000000000000000000000000000000000081526004016117249190611ef2565b60405180910390fd5b81816040517f177e802f0000000000000000000000000000000000000000000000000000000081526004016117639291906125d9565b60405180910390fd5b505050565b60606000600161178084611900565b01905060008167ffffffffffffffff81111561179f5761179e611d5c565b5b6040519080825280601f01601f1916602001820160405280156117d15781602001600182028036833780820191505090505b509050600082602001820190505b600115611834578080600190039150507f3031323334353637383961626364656600000000000000000000000000000000600a86061a8153600a858161182857611827612602565b5b049450600085036117df575b819350505050919050565b60008073ffffffffffffffffffffffffffffffffffffffff168373ffffffffffffffffffffffffffffffffffffffff16141580156118f757508273ffffffffffffffffffffffffffffffffffffffff168473ffffffffffffffffffffffffffffffffffffffff1614806118b857506118b7848461090a565b5b806118f657508273ffffffffffffffffffffffffffffffffffffffff166118de83610b8e565b73ffffffffffffffffffffffffffffffffffffffff16145b5b90509392505050565b600080600090507a184f03e93ff9f4daa797ed6e38ed64bf6a1f010000000000000000831061195e577a184f03e93ff9f4daa797ed6e38ed64bf6a1f010000000000000000838161195457611953612602565b5b0492506040810190505b6d04ee2d6d415b85acef8100000000831061199b576d04ee2d6d415b85acef8100000000838161199157611990612602565b5b0492506020810190505b662386f26fc1000083106119ca57662386f26fc1000083816119c0576119bf612602565b5b0492506010810190505b6305f5e10083106119f3576305f5e10083816119e9576119e8612602565b5b0492506008810190505b6127108310611a18576127108381611a0e57611a0d612602565b5b0492506004810190505b60648310611a3b5760648381611a3157611a30612602565b5b0492506002810190505b600a8310611a4a576001810190505b80915050919050565b6000604051905090565b600080fd5b600080fd5b60007fffffffff0000000000000000000000000000000000000000000000000000000082169050919050565b611a9c81611a67565b8114611aa757600080fd5b50565b600081359050611ab981611a93565b92915050565b600060208284031215611ad557611ad4611a5d565b5b6000611ae384828501611aaa565b91505092915050565b60008115159050919050565b611b0181611aec565b82525050565b6000602082019050611b1c6000830184611af8565b92915050565b600081519050919050565b600082825260208201905092915050565b60005b83811015611b5c578082015181840152602081019050611b41565b60008484015250505050565b6000601f19601f8301169050919050565b6000611b8482611b22565b611b8e8185611b2d565b9350611b9e818560208601611b3e565b611ba781611b68565b840191505092915050565b60006020820190508181036000830152611bcc8184611b79565b905092915050565b6000819050919050565b611be781611bd4565b8114611bf257600080fd5b50565b600081359050611c0481611bde565b92915050565b600060208284031215611c2057611c1f611a5d565b5b6000611c2e84828501611bf5565b91505092915050565b600073ffffffffffffffffffffffffffffffffffffffff82169050919050565b6000611c6282611c37565b9050919050565b611c7281611c57565b82525050565b6000602082019050611c8d6000830184611c69565b92915050565b611c9c81611c57565b8114611ca757600080fd5b50565b600081359050611cb981611c93565b92915050565b60008060408385031215611cd657611cd5611a5d565b5b6000611ce485828601611caa565b9250506020611cf585828601611bf5565b9150509250929050565b600080600060608486031215611d1857611d17611a5d565b5b6000611d2686828701611caa565b9350506020611d3786828701611caa565b9250506040611d4886828701611bf5565b9150509250925092565b600080fd5b600080fd5b7f4e487b7100000000000000000000000000000000000000000000000000000000600052604160045260246000fd5b611d9482611b68565b810181811067ffffffffffffffff82111715611db357611db2611d5c565b5b80604052505050565b6000611dc6611a53565b9050611dd28282611d8b565b919050565b600067ffffffffffffffff821115611df257611df1611d5c565b5b611dfb82611b68565b9050602081019050919050565b82818337600083830152505050565b6000611e2a611e2584611dd7565b611dbc565b905082815260208101848484011115611e4657611e45611d57565b5b611e51848285611e08565b509392505050565b600082601f830112611e6e57611e6d611d52565b5b8135611e7e848260208601611e17565b91505092915050565b60008060408385031215611e9e57611e9d611a5d565b5b6000611eac85828601611caa565b925050602083013567ffffffffffffffff811115611ecd57611ecc611a62565b5b611ed985828601611e59565b9150509250929050565b611eec81611bd4565b82525050565b6000602082019050611f076000830184611ee3565b92915050565b600060208284031215611f2357611f22611a5d565b5b6000611f3184828501611caa565b91505092915050565b611f4381611aec565b8114611f4e57600080fd5b50565b600081359050611f6081611f3a565b92915050565b60008060408385031215611f7d57611f7c611a5d565b5b6000611f8b85828601611caa565b9250506020611f9c85828601611f51565b9150509250929050565b600067ffffffffffffffff821115611fc157611fc0611d5c565b5b611fca82611b68565b9050602081019050919050565b6000611fea611fe584611fa6565b611dbc565b90508281526020810184848401111561200657612005611d57565b5b612011848285611e08565b509392505050565b600082601f83011261202e5761202d611d52565b5b813561203e848260208601611fd7565b91505092915050565b6000806000806080858703121561206157612060611a5d565b5b600061206f87828801611caa565b945050602061208087828801611caa565b935050604061209187828801611bf5565b925050606085013567ffffffffffffffff8111156120b2576120b1611a62565b5b6120be87828801612019565b91505092959194509250565b600080604083850312156120e1576120e0611a5d565b5b60006120ef85828601611caa565b925050602061210085828601611caa565b9150509250929050565b7f4e487b7100000000000000000000000000000000000000000000000000000000600052602260045260246000fd5b6000600282049050600182168061215157607f821691505b6020821081036121645761216361210a565b5b50919050565b600060608201905061217f6000830186611c69565b61218c6020830185611ee3565b6121996040830184611c69565b949350505050565b7f4e487b7100000000000000000000000000000000000000000000000000000000600052601160045260246000fd5b60006121db82611bd4565b91507fffffffffffffffffffffffffffffffffffffffffffffffffffffffffffffffff820361220d5761220c6121a1565b5b600182019050919050565b600081905092915050565b600061222e82611b22565b6122388185612218565b9350612248818560208601611b3e565b80840191505092915050565b60006122608285612223565b915061226c8284612223565b91508190509392505050565b60008190508160005260206000209050919050565b60006020601f8301049050919050565b600082821b905092915050565b6000600883026122da7fffffffffffffffffffffffffffffffffffffffffffffffffffffffffffffffff8261229d565b6122e4868361229d565b95508019841693508086168417925050509392505050565b6000819050919050565b600061232161231c61231784611bd4565b6122fc565b611bd4565b9050919050565b6000819050919050565b61233b83612306565b61234f61234782612328565b8484546122aa565b825550505050565b600090565b612364612357565b61236f818484612332565b505050565b5b818110156123935761238860008261235c565b600181019050612375565b5050565b601f8211156123d8576123a981612278565b6123b28461228d565b810160208510156123c1578190505b6123d56123cd8561228d565b830182612374565b50505b505050565b600082821c905092915050565b60006123fb600019846008026123dd565b1980831691505092915050565b600061241483836123ea565b9150826002028217905092915050565b61242d82611b22565b67ffffffffffffffff81111561244657612445611d5c565b5b6124508254612139565b61245b828285612397565b600060209050601f83116001811461248e576000841561247c578287015190505b6124868582612408565b8655506124ee565b601f19841661249c86612278565b60005b828110156124c45784890151825560018201915060208501945060208101905061249f565b868310156124e157848901516124dd601f8916826123ea565b8355505b6001600288020188555050505b505050505050565b600081519050919050565b600082825260208201905092915050565b600061251d826124f6565b6125278185612501565b9350612537818560208601611b3e565b61254081611b68565b840191505092915050565b60006080820190506125606000830187611c69565b61256d6020830186611c69565b61257a6040830185611ee3565b818103606083015261258c8184612512565b905095945050505050565b6000815190506125a681611a93565b92915050565b6000602082840312156125c2576125c1611a5d565b5b60006125d084828501612597565b91505092915050565b60006040820190506125ee6000830185611c69565b6125fb6020830184611ee3565b9392505050565b7f4e487b7100000000000000000000000000000000000000000000000000000000600052601260045260246000fdfea2646970667358221220065b7a1ce614593c21e9873a1f073f2f0f9e20ac891538a3a480a9b76d925afc64736f6c63430008140033",
  "linkReferences": {},
  "deployedLinkReferences": {}
}